:100000000C942A001895000018950000189500001F
:100010000C94D10018950000189500001895000068
:10002000189500001895000018950000189500001C
:10003000189500001895000018950000189500000C
:1000400018950000189500001895000018950000FC
:10005000189500008FE58DBFC8E3E0E24E2E84E0E6
:100060008EBFD4E0F4E05F2EA89584B7082E877F7A
:1000700084BF88E1992781BD91BDEEEFF3E0A0E652
:10008000B0E088278D933197E9F70E946D026624CE
:1000900080E087BB85E085BD88E082BD85E886B9C4
:1000A00080E087B9E0ECF0E080E40E94BB0258E019
:1000B000C895802D0E94B50231965A95C9F704C0A3
:1000C0000C12120C20202020E4EEF0E088E40E94C4
:1000D000BB0258E0C895802D0E94B50231965A9512
:1000E000C9F704C020040C1C1C202020E8E0F1E02B
:1000F00080E50E94BB0258E0C895802D0E94B502A1
:1001000031965A95C9F704C020040E1F1F202020E5
:10011000ECE2F1E088E50E94BB0258E0C895802D32
:100120000E94B50231965A95C9F704C020040E1FEB
:100130001F070604E0E5F1E080E60E94BB0258E0FC
:10014000C895802D0E94B50231965A95C9F704C012
:1001500020040E1F1F1F0E04E4E7F1E088E60E9452
:10016000BB0258E0C895802D0E94B50231965A9581
:10017000C9F704C02020202020202020379A81E0C9
:1001800080936500789479B7706479BF85E085BD08
:100190000E9458028CE00E94BB020C94CD00F8949F
:1001A000FFCF0F921F922F923F924F925F927F92BA
:1001B000AF92BF920F931F932F933F934F935F93F1
:1001C0006F937F938F939F93AF93BF93CF93DF935F
:1001D000EF93FF938FB78F9307B1007E07B90E940B
:1001E000FC02A3E6B0E08D939C93A3E6B0E00D91F2
:1001F0001C9142E050E00E942F02A3E6B0E04D9334
:100200005C938FEB11E00E946702E8EDF6E00E943C
:100210005102E3E6F0E0A8E0B4E00E9417030E9478
:10022000490280E00E94B502E0EEF6E00E94510231
:100230008FEB10E10E946702A5E6B0E08C910E946E
:10024000B502A5E6B0E08C918F5F8C9300916500BC
:10025000063018F011F00C942F010C94320181E05B
:1002600080936500A0E6B0E08C918F5F8C93009145
:1002700060000B3318F011F00C9440010C946E01E7
:10028000A1E6B0E08C918F5F8C9380E0809360005A
:10029000009161000B3318F011F00C9451010C9493
:1002A0006E01A2E6B0E08C918F5F8C9380E080932A
:1002B000610080E08093600000916200073118F0D7
:1002C00011F00C9465010C946E0180E08093620043
:1002D00080E08093600080E080936100B29B0C948A
:1002E000760180E0809361000C948801B09B0C94AF
:1002F0008001A1E6B0E08C918F5F8C930C94880113
:10030000B19B0C948801A2E6B0E08C918F5F8C9336
:100310008FE711E00E946702009162000A3010F03E
:100320000C94A401E6EEF6E00E945102E2E6F0E051
:10033000A8E0B4E00E9427030E944902E8EEF6E03C
:100340000E9451020C94B001E2E6F0E0A8E0B4E0B3
:100350000E9427030E944902E8EEF6E00E94510243
:10036000009161000A3010F00C94C801E6EEF6E04E
:100370000E945102E1E6F0E0A8E0B4E00E94270309
:100380000E944902E8EEF6E00E9451020C94D4016A
:10039000E1E6F0E0A8E0B4E00E9427030E944902F1
:1003A000E8EEF6E00E945102009161000A3010F080
:1003B0000C94E801E6EEF6E00E945102E1E6F0E07E
:1003C000A8E0B4E00E9427030E9449020C94F001C7
:1003D000E1E6F0E0A8E0B4E00E9427030E944902B1
:1003E0008F918FBFFF91EF91DF91CF91BF91AF912F
:1003F0009F918F917F916F915F914F913F912F913D
:100400001F910F91BF90AF907F905F904F903F9062
:100410002F901F900F90189500FC10D0089503D0D6
:100420001ED001F8F9CF0024E89457FF02C009D08C
:10043000689400F80BD010F80124089502D009D078
:100440000895509540954F5F5F4F0895E89417FFCA
:100450000895009510950F5F1F4F68940895352FEC
:10046000242FE894452B11F468940895512F402FC0
:100470000027112780E1440F551F001F111F021B89
:10048000130B416018F4020F131F4E7F8A9599F7E2
:100490000895A8E0B4E08D91882311F066D0FBCFD9
:1004A00008950E940503802D11F05FD0FACF0895C2
:1004B00081E061D00FD080E85EC08FE7213039F055
:1004C0008FEB223021F08FE8233009F08FEC810F81
:1004D0000C94BB0283E099277BC08AEF90E00E94D6
:1004E000E8028F9A8E9A8D9A8C9A8A9A8B9A939810
:1004F00085E090E00E94E802929897989698959AE5
:10050000949A929AEF93FF93E0E6F0E00E94DC0267
:10051000FF91EF91929859D0929AEF93FF93E0E672
:10052000F0E00E94DC02FF91EF9192984ED0929AF7
:10053000EF93FF93E0E6F0E00E94DC02FF91EF9181
:10054000929843D09498929AEF93FF93E0E6F0E06C
:100550000E94DC02FF91EF91929837D088E20BD095
:100560008EE009D086E007D00895939A829505D051
:1005700004D02BD008959398F9CF859510F4949AD0
:1005800001C09498859510F4959A01C09598859529
:1005900010F4969A01C09698859510F4979A01C028
:1005A0009798929AEF93FF93E0E6F0E00E94DC02C6
:1005B000FF91EF91929808953197F1F7089568941B
:1005C00062F80895E89462F8089581E090E000C030
:1005D000EF93FF93EE27E82BE92B31F0E8EEF3E001
:1005E0003197F1F70197D1F7FF91EF9108950191BC
:1005F0001191219130810895369A3699FECF369A1D
:100600003699FECF84B195B10895C89531960020F2
:100610000895000F111F221F331F08950095109594
:10062000209530950F5F1F4F2F4F3F4F0895019139
:1006300010810FC00E94F7020EC00E94F70210C086
:100640000191108117FF05C03FEF2FEF04C000811B
:1006500011272227332737FF03C0E0DF8DE28D9378
:10066000CF92DF92EF92AA24BB24CC24DD24EE2487
:1006700040E2EAE0FF2755E093E38081890F87FDA0
:100680009F7083FD907F891B81935A95A9F7C1DFE5
:10069000AA1CBB1CCC1CDD1CEE1C4A9551F7E8942F
:1006A000EFE0FF2782910BD0EB30E0F71EF068946B
:1006B0008A2D09D04D93EF90DF90CF900895982F19
:1006C000829501D0892F8F70805D26F0803309F4E8
:1006D000089568948D93089574656D70203D0000B1
:0A06E00063202020000030003A00E3
:00000001FF
